:100000000C9474000C949C000C949C000C949C0028
:100010000C949C000C949C000C949C000C949C00F0
:100020000C949C000C949C000C949C000C949C00E0
:100030000C949C000C949C000C949C000C949C00D0
:100040000C94F70A0C949C000C94AD0D0C94F00DDC
:100050000C949C000C949C000C949C000C949C00B0
:100060000C94EF080C949C00070402220506000182
:1000700003103021131211313A3735342829232443
:10008000161B11100E0D0C020000000700020100EB
:100090000003040600000000000000000102040844
:1000A00010204080010204081020010204081020E2
:1000B000040404040404040402020202020203030E
:1000C00003030303000000002300260029000000B2
:1000D0000000250028002B0000000000240027005D
:1000E0002A006C010E08B30E11241FBECFEFD8E01A
:1000F000DEBFCDBF11E0A0E0B1E0EEE0F3E202C070
:1001000005900D92A233B107D9F723E0A2E3B1E045
:1001100001C01D92AA38B207E1F710E0C4E7D0E0B1
:1001200004C02197FE010E946011C137D107C9F7B1
:100130000E94C50C0C9485110C940000DC01ED911B
:10014000FC910190F081E02D09942EE731E0F90156
:10015000482F50E09E2F921B981730F4DF01A40F18
:10016000B51F9C919193F6CF90917D01981B909330
:100170007D0108951F93CF93DF93182FD0E080E087
:10018000C82FCC0F6D2F610F8EE891E00E942506DD
:100190008C2BDF5FD830A1F7DF91CF911F910895AD
:1001A000CF9361E070E08CED92E00E949E00C0E091
:1001B0008C2F0E94BA00682F880F770B8CED92E08D
:1001C0000E949E00C85FC03499F7CF9108951F9395
:1001D000CF93DF93D82FC62F18E0160F6C2F8EE821
:1001E00091E0D0FF03C00E94390602C00E944C0675
:1001F000D695CF5FC113F2CFDF91CF911F910895B4
:100200000F931F93CF93DF9380917D018930B8F0D6
:100210000FE711E0C0E0D0E0BE01F80181918F014D
:100220000E94E7002896C034D105B1F78EE891E02E
:100230000E94AB0689E00E94A50081E001C080E039
:10024000DF91CF911F910F91089580917D018823B7
:1002500031F080917E01813011F40C94000180E036
:100260000895CF930E94410B9B01AC0188279927E9
:10027000DC01821B930BA40BB50B4E97A105B105B6
:1002800048F18EE891E00E941307882319F1C0E03D
:100290006C2F8EE891E00E941006882389F06C2F65
:1002A0008EE891E00E9425066C2F882329F08EE8C5
:1002B00091E00E944C0604C08EE891E00E9439064D
:1002C000CF5FC03429F78EE891E00E94AB06CF9152
:1002D0000C94D000CF9108958F929F92AF92BF92CD
:1002E000CF92DF92EF92FF920F931F9386EF91E0F0
:1002F0000E94650489ED91E00E9465048CEB91E019
:100300000E9465048FE991E00E946504812C912C84
:10031000A12CB12CC12CD12CE12CF12C0FE911E036
:100320002CEB31E049ED51E066EF71E08EE891E0B1
:100330000E946A051F910F91FF90EF90DF90CF9080
:10034000BF90AF909F908F900895CF93C82F62E099
:1003500070E08CED92E00E949E006C2F8CED92E09C
:10036000CF910C946A0D99B193FB992790F981E094
:1003700098274A9B926080913301981749F0811128
:100380000FC0913039F48091320181608093320145
:1003900080E050C0923021F4809132018260F6CF2B
:1003A000933021F4809132018061F0CF9111F0CF30
:1003B000823021F480913201846005C0813029F4BB
:1003C000809132018860809332018091320180FFF8
:1003D00008C08091320182FD0CC08091320184FD01
:1003E00008C08091320182FF0AC08091320180FFF3
:1003F00002C081E01DC08091320184FDFACF80915E
:10040000320181FF08C08091320183FD1EC08091BE
:10041000320184FD1AC08091320183FF18C080919F
:10042000320181FD12C080913201829581708195E7
:100430001092320190933301813011F487E003C0B0
:10044000882339F088E00C94A5018FEFF1CF80E08C
:10045000EFCF0895CF93C82F63E070E08CED92E06A
:100460000E949E006C2F8CED92E0CF910C946A0D4F
:10047000CF93DF93D82FC62F64E070E08CED92E02D
:100480000E949E006D2F8CED92E00E946A0D6C2FF1
:100490008CED92E0DF91CF910C946A0DCF93DF93B6
:1004A000EC0160E070E08CED92E00E949E006C81B7
:1004B0008CED92E00E946A0DBE018CED92E0DF911E
:1004C000CF910C94900C6F927F928F92AF92CF92BB
:1004D000EF920F931F93CF93DF93CDB7DEB727979C
:1004E0000FB6F894DEBF0FBECDBF40E052EC61E026
:1004F00070E08CED92E00E942B0E67E071E0CE017F
:1005000001960E94410CCE0101960E944E02CE013E
:1005100001960E94D30B60E08DE00E94450A60E0E6
:100520008CE00E94450A60E088E00E94450A62E093
:1005300082E00E94450A62E083E00E94450A62E090
:1005400084E00E94450A60E080E10E94450A61E083
:1005500080E10E94810A87E7882E96E7A92E25E789
:10056000C22E34E7E32E03E722E741E760E78EE897
:1005700091E00E94A10561E08EE891E00E945F0693
:1005800000E010E0802F869586959801280F311D98
:1005900020FD05C0602F8EE891E00E9439060F5FB4
:1005A0001F4F0034110571F78EE891E00E94AB06F1
:1005B00064E670E080E090E00E94720B00E010E0E2
:1005C00002FB662460F8712CC801860D971D602F10
:1005D00080FF05C08EE891E00E94390604C08EE8D5
:1005E00091E00E944C060F5F1F4F0034110541F748
:1005F0008EE891E00E94AB0664E670E080E090E057
:100600000E94720B10E0612F8EE891E00E944C0670
:100610001F5F1034C1F78EE891E00E94AB06279669
:100620000FB6F894DEBF0FBECDBFDF91CF911F9103
:100630000F91EF90CF90AF908F907F906F90089533
:100640004F925F926F927F92AF92BF92CF92DF9262
:10065000EF92FF920F931F93CF93DF930E9431018C
:100660000E94B30180917D018031B8F48CED92E05D
:100670000E94130D1816190684F4C0917D01D0E074
:100680008CED92E00E943F0DC258DE4F888380912E
:100690007D018F5F80937D01E5CF0E94250181114F
:1006A000FCCF8DE00E94B10A20917C01892B21F1C1
:1006B000211129C081E00E94A501C0E06C2F8EE8C5
:1006C00091E00E9425066C2F882329F08EE891E0A6
:1006D0000E944C0604C08EE891E00E943906CF5F6C
:1006E000C03461F78EE891E00E94AB060E94D00012
:1006F00081E080937C0107C0222329F010927C01C5
:1007000081E00E942A028CE00E94B10A20917B01C4
:10071000892BA1F1211139C082E00E94A5010AE3D1
:1007200011E03801CFE36C2F8EE891E00E9425069E
:1007300091E0811101C090E0F30191933F01C1501C
:1007400090F7C0E0F80181918F016C2F882329F088
:100750008EE891E00E94390604C08EE891E00E9484
:100760004C06CF5FC03471F78EE891E00E94AB0673
:100770000E94D00081E080937B0107C0222329F0F2
:1007800010927B0182E00E942A0288E00E94B10A56
:1007900020917A01892B49F021110EC083E00E943B
:1007A000A50181E080937A0107C0222329F01092ED
:1007B0007A0183E00E942A028EE00E94DA0ABC01DC
:1007C000990F880B990B1F921F921F92CFEFCF9317
:1007D000A12CB12C6501EE24EA9413E0F12E00E087
:1007E00010E020E030E0A9010E94D20C2B013C0176
:1007F0008FE00E94DA0ABC01990F880B990B1F92B7
:100800001F921F92CF9320E030E0A9010E94D20CEA
:1008100080E10E94DA0ABC01990F880B990B1F92A4
:100820001F921F92CF9320E030E0A9010E94D20CCA
:100830008091340190913501480E591E2DB73EB775
:10084000245F3F4F0FB6F8943EBF0FBE2DBF57FE3B
:1008500003C03FEF431A530AB201759567956817B5
:10086000790739F0709335016093340180E00E947C
:10087000380284E00E94B10A892B89F484E0DF9178
:10088000CF911F910F91FF90EF90DF90CF90BF908D
:10089000AF907F906F905F904F900C94A501DF9187
:1008A000CF911F910F91FF90EF90DF90CF90BF906D
:1008B000AF907F906F905F904F900895DC01ED9125
:1008C000FC910190F081E02D099408956031C8F405
:1008D000E62FF0E0E859FF4FE491AE2FB0E024E0BE
:1008E000B595A7952A95E1F7A80FB91F50968C9159
:1008F00090E0EF7002C095958795EA95E2F78170D8
:10090000089580E008956031C8F4E62FF0E0E859DA
:10091000FF4FE491AE2FB0E024E0B595A7952A955E
:10092000E1F7A80FB91F56968C9190E0EF7002C0C6
:1009300095958795EA95E2F78170089580E008958E
:10094000603100F5E62FF0E0E858FF4F6491462F44
:100950004F7021E030E002C0220F331F4A95E2F7CA
:10096000E62FF0E044E0F595E7954A95E1F7EE0FC4
:10097000FF1FE80FF91F808191812823392381E02F
:10098000232B09F480E008956031F8F4E62FF0E0BD
:10099000E858FF4FE491AE2FB0E024E0B595A7955D
:1009A0002A95E1F7AA0FBB1FA80FB91FEF7081E0CE
:1009B00090E002C0880F991FEA95E2F72D913C91D3
:1009C0001197822B932B8D939C930895603108F59A
:1009D000E62FF0E0E858FF4FE491AE2FB0E024E0BE
:1009E000B595A7952A95E1F7AA0FBB1FA80FB91FC8
:1009F000EF7081E090E002C0880F991FEA95E2F75E
:100A0000809590952D913C911197822393238D93FE
:100A10009C930895CF93C62FFC01648D83E192E0EF
:100A20000E94EE076C2FC03108F06FE0606E70E03E
:100A300083E192E00E945E0483E192E0CF910C9406
:100A40000B08CF93C62FFC01648D83E192E00E94D6
:100A5000EE07C43008F0C0E06C2F70E0660F771F1F
:100A6000616883E192E00E945E0483E192E0CF91AD
:100A70000C940B08CF93DF93EC016C8F83E192E031
:100A80000E94D4076C8D83E192E00E94EE0761E240
:100A900070E083E192E00E945E0483E192E00E94B4
:100AA0000B0860E0CE010E9421056FE0CE010E949C
:100AB0000A056C8D83E192E00E94EE0761EA70E026
:100AC00083E192E00E945E0483E192E0DF91CF91A6
:100AD0000C940B088F929F92AF92BF92CF92DF92AD
:100AE000EF92FF920F931F93CF93DF93CDB7DEB7B3
:100AF000FC0171836083538342833583248317838E
:100B00000683F186E086D386C286B586A48697865C
:100B10008686108ADC0180E02D913D91232B21F007
:100B20008F5F808B8830C1F7DF91CF911F910F913C
:100B3000FF90EF90DF90CF90BF90AF909F908F90FD
:100B400008956F927F928F92AF92CF92EF920F9310
:100B50001F93CF93DF93CDB7DEB728970FB6F894E6
:100B6000DEBF0FBECDBF3C0169834A832B830C835C
:100B7000ED82CE82AF82888610E0F301808918175B
:100B8000B0F4212F30E0F901EE0FFF1FE60DF71D45
:100B900080819181009749F0E1E0F0E0EC0FFD1FCA
:100BA000E20FF31F60810E943A051F5FE6CF28968F
:100BB0000FB6F894DEBF0FBECDBFDF91CF911F916E
:100BC0000F91EF90CF90AF908F907F906F9008959E
:100BD00067FD10C0262F22952F70FC013089231746
:100BE00048F46F70E20FF11DE20FF11D80819181D9
:100BF0000C94660480E0089567FD10C0262F2295AE
:100C00002F70FC013089231748F46F70E20FF11D3B
:100C1000E20FF11D808191810C94830480E008959E
:100C20000F931F93CF93DF93EC01162F0E94E805DB
:100C3000082F612FCE010E94FC0591E089278023B7
:100C4000DF91CF911F910F91089567FD10C0262F5E
:100C500022952F70FC013089231748F46F70E20F42
:100C6000F11DE20FF11D808191810C94A00480E0C0
:100C7000089567FD10C0262F22952F70FC01308942
:100C8000231748F46F70E20FF11DE20FF11D808110
:100C900091810C94C404089567FD10C0262F2295FD
:100CA0002F70FC013089231748F46F70E20FF11D9B
:100CB000E20FF11D808191810C94E60408950F9359
:100CC0001F93CF93DF938C01D62FC0E0F80180896A
:100CD000C81770F4F801EC0FF11DEC0FF11D8081C5
:100CE0009181009719F06D2F0E940A05CF5FEECF1A
:100CF000DF91CF911F910F910895EF92FF920F9383
:100D00001F93CF93DF93EC016C8D83E192E00E94FF
:100D1000EE0760E083E192E00E9495078E01005F9C
:100D20001F4F7E01688183E192E00E949507229621
:100D3000F701618183E192E00E949507C017D10716
:100D400081F783E192E0DF91CF911F910F91FF90A6
:100D5000EF900C940B080F931F93CF938C01C0E07E
:100D6000F8018089C81768F4F801EC0FF11DEC0F49
:100D7000F11D80819181009711F00E947D06CF5F67
:100D8000EFCFCF911F910F910895CF92DF92EF9205
:100D9000FF920F931F93CF93DF93EC016C0186E1D9
:100DA000C80ED11C8E01005F1F4F86E0F801D601EE
:100DB00001900D928A95E1F76C8D83E192E00E949B
:100DC000EE0760E470E083E192E00E945E0483E15C
:100DD00092E00E940B0846E06C8D83E192E00E9455
:100DE000EB07760183E192E00E944107F8018193CD
:100DF0008F01EC15FD05B1F76C96F70191917F011C
:100E000037978081981305C0EC16FD06B1F780E096
:100E100001C081E0DF91CF911F910F91FF90EF9082
:100E2000DF90CF9008950F931F93CF938C01C0E074
:100E300090E0F8018089C817B8F4F801EC0FF11DB3
:100E4000EC0FF11D208131812115310559F09111EF
:100E500008C0C9010E94C50691E0811103C090E05D
:100E600001C091E0CF5FE5CF892FCF911F910F9106
:100E700008958091430290E020914402821B9109E1
:100E800008959091440280914302981750F4E92FFD
:100E9000F0E0EB5BFD4F208130E09F5F90934402D8
:100EA00002C02FEF3FEFC9010895E0914402809105
:100EB0004302E81730F4F0E0EB5BFD4F808190E0F7
:100EC00008958FEF9FEF08950895CF92DF92EF92EC
:100ED000FF920F931F93CF93DF937C01262F972FC1
:100EE0008A0180911F02882391F0C62FD72F6E01AF
:100EF000C40ED51ECC15DD0571F06991D701ED91B9
:100F0000FC910190F081E02DC7010995F3CF642F8A
:100F1000822F0E94C608C801DF91CF911F910F91C7
:100F2000FF90EF90DF90CF900895CF93DF931F92C3
:100F3000CDB7DEB7698320911F022223D1F0209123
:100F40002002203240F021E030E0FC013383228394
:100F500080E090E015C080912102E82FF0E0EE5D86
:100F6000FD4F998190838F5F8093210280932002AF
:100F700005C061E0CE0101960E94C60881E090E0C4
:100F80000F90DF91CF910895FC011382128288EEB9
:100F900093E0A0E0B0E084839583A683B78385E1E6
:100FA00091E091838083089510924402109243024D
:100FB00010922102109220020C941208862F4132C6
:100FC00008F040E265E472E00E94300810924402AA
:100FD00080934302089521E00C94DE0781E0809322
:100FE0001F02609342021092210210922002089583
:100FF0000F93062F21E04091200262E272E080917F
:1010000042020E9474081092210210922002109253
:101010001F020F91089561E00C94F80783E192E0BC
:101020000C94C4071092D20281E08093D0021092F7
:10103000CF0261E082E10E94810A61E083E10E94C7
:10104000810AE9EBF0E080818E7F808380818D7F53
:10105000808388E48093B80085E48093BC00089581
:10106000413208F03FC09091D2029111FCCF91E043
:101070009093D2022093D0022FEF2093650210921A
:10108000AA02240F2093A9029093D1029091D10239
:10109000880F892B8093D1028091CF02813041F457
:1010A0001092CF028091D1028093BB0085EC01C0E9
:1010B00085EE8093BC008091D2028130E1F3809173
:1010C000AA02841710F44091AA022BEA32E0FB0135
:1010D000D9018A2F821B841718F48D918193F9CF3F
:1010E000842F089580E008950F93413208F046C0A0
:1010F0009091D2029111FCCF32E03093D202009352
:10110000D0023FEF309365021092AA024093A902E9
:10111000FB016BEA72E0DB013A2F361B341718F43F
:1011200031913D93F9CF1092D1023091D102880FC5
:10113000832B8093D1028091CF02813041F41092B1
:10114000CF028091D1028093BB0085EC01C085EE77
:101150008093BC00222321F08091D2028230D1F30F
:10116000809165028F3F79F080916502803241F075
:1011700080916502803331F094E005C091E003C0B6
:1011800092E001C093E0892F0F910895613298F4A5
:101190002091D202243089F460938702FC0129E86F
:1011A00032E0D9018A2F821B861718F481918D9322
:1011B000F9CF80E0089581E0089582E0089585EDFB
:1011C0008093BC008091BC0084FDFCCF1092D202C1
:1011D000089585EC8093BC001092D20208951F926E
:1011E0000F920FB60F9211242F933F934F935F935B
:1011F0006F937F938F939F93AF93BF93EF93FF93DF
:101200008091B900887F803609F49CC068F58832E7
:1012100009F45BC090F4803109F454C038F4882399
:1012200009F4F5C0883009F44DC0F5C0883109F4DF
:101230004CC0803209F45DC0EEC0803409F468C04F
:1012400048F4803309F455C0883309F0E4C0809332
:101250006502A8C0803509F44FC0883509F45DC027
:10126000883409F0D8C0D5C0883909F4C6C0A8F4BC
:10127000883709F467C038F4883609F463C08037CA
:1012800009F460C0C8C0883809F4B7C0803909F4CF
:101290005FC0803809F0BFC05BC0803B09F485C0E7
:1012A00038F4803A09F466C0883A09F47EC0B3C0C5
:1012B000803C09F4A6C0883C09F4A3C0883B09F42B
:1012C00089C0A9C08091D10210C09091AA028091DA
:1012D000A902981770F5E091AA0281E08E0F809321
:1012E000AA02F0E0E555FD4F80818093BB0085ECBC
:1012F00085C0809365028DC0E091AA0281E08E0FC7
:101300008093AA028091BB00F0E0E555FD4F8083F9
:101310009091AA028091A9026DC0E091AA0281E099
:101320008E0F8093AA028091BB00F0E0E555FD4F3F
:1013300080838091D00281116CC081E08093CF02C4
:1013400084EA60C083E08093D20210926602CFCF1D
:1013500080916602803208F050C0E091660281E020
:101360008E0F809366028091BB00F0E0E959FD4F3B
:101370008083BDCF80916602803230F4E0916602B6
:10138000F0E0E959FD4F10820E94DF08609166028B
:1013900070E0E091CB02F091CC0287E692E00995F3
:1013A000109266020E94E90836C084E08093D2025F
:1013B0001092880210928702E091CD02F091CE0245
:1013C000099580918702811105C081E08093870291
:1013D00010928902E091880281E08E0F809388024A
:1013E000F0E0E757FD4F80818093BB009091880229
:1013F00080918702981708F47ACF85E88093BC0023
:101400000AC085EC8093BC001092D20204C01092F6
:1014100065020E94DF08FF91EF91BF91AF919F910C
:101420008F917F916F915F914F913F912F910F908D
:101430000FBE0F901F901895833081F028F48130F3
:1014400099F08230A1F008958630A9F08730B9F084
:101450008430D1F4809180008F7D03C08091800022
:101460008F7780938000089584B58F7702C084B50C
:101470008F7D84BD08958091B0008F7703C08091E7
:10148000B0008F7D8093B0000895CF93DF9390E0FC
:10149000FC01E456FF4F2491FC01E055FF4F84917D
:1014A000882361F190E0880F991FFC01E852FF4FFB
:1014B000C591D491FC01E253FF4FA591B491611104
:1014C00009C09FB7F8948881209582238883EC9186
:1014D0002E230BC0623061F49FB7F8943881822FBD
:1014E000809583238883EC912E2B2C939FBF06C07D
:1014F0008FB7F894E8812E2B28838FBFDF91CF918F
:1015000008951F93CF93DF93282F30E0F901E85718
:10151000FF4F8491F901E456FF4FD491F901E05552
:10152000FF4FC491CC23C9F0162F81110E941C0AD1
:10153000EC2FF0E0EE0FFF1FE253FF4FA591B491A7
:101540008FB7F894111105C09C91ED2FE095E92318
:1015500002C0EC91ED2BEC938FBFDF91CF911F91E7
:101560000895CF93DF93282F30E0F901E857FF4F1C
:101570008491F901E456FF4FD491F901E055FF4FF2
:10158000C491CC2391F081110E941C0AEC2FF0E051
:10159000EE0FFF1FEC53FF4FA591B491EC91ED239B
:1015A00081E090E021F480E002C080E090E0DF91F3
:1015B000CF9108958E3008F08E50877020910001F1
:1015C00090E4299F90011124822B80937C008091CC
:1015D0007A00806480937A0080917A0086FDFCCF47
:1015E000809178002091790090E0922B08951F92CD
:1015F0000F920FB60F9211242F933F938F939F93C7
:10160000AF93BF938091D4029091D502A091D6025E
:10161000B091D7023091D30223E0230F2D3720F46D
:101620000196A11DB11D05C026E8230F0296A11D3C
:10163000B11D2093D3028093D4029093D502A0933E
:10164000D602B093D7028091D8029091D902A0918E
:10165000DA02B091DB020196A11DB11D8093D80280
:101660009093D902A093DA02B093DB02BF91AF91BD
:101670009F918F913F912F910F900FBE0F901F90D0
:1016800018952FB7F8946091D4027091D50280918B
:10169000D6029091D7022FBF08953FB7F89480915A
:1016A000D8029091D902A091DA02B091DB0226B55E
:1016B000A89B05C02F3F19F00196A11DB11D3FBF8A
:1016C000BA2FA92F982F8827820F911DA11DB11D18
:1016D000BC01CD0142E0660F771F881F991F4A9514
:1016E000D1F70895CF92DF92EF92FF92CF93DF93DD
:1016F0006B017C010E944D0BEB01C114D104E1048C
:10170000F10479F00E944D0B6C1B7D0B683E734019
:10171000A0F381E0C81AD108E108F108C851DC4FF4
:10172000ECCFDF91CF91FF90EF90DF90CF900895B5
:10173000789484B5826084BD84B5816084BD85B5AC
:10174000826085BD85B5816085BDEEE6F0E0808173
:1017500081608083E1E8F0E0108280818260808394
:10176000808181608083E0E8F0E080818160808317
:10177000E1EBF0E0808184608083E0EBF0E0808149
:1017800081608083EAE7F0E08081846080838081EB
:101790008260808380818160808380818068808393
:1017A0001092C1000895FC01808191810C946C100D
:1017B000CF93DF93EC0188819981009711F00E940B
:1017C0006C10198218821D821C821B821A82DF9182
:1017D000CF9108950F931F93CF93DF93EC018B016B
:1017E0006F5F7F4F888199810E94EE0E009731F0E4
:1017F000998388831B830A8381E001C080E0DF91A5
:10180000CF911F910F910895CF93DF93EC018881C1
:101810009981892B29F08A819B818617970760F42B
:10182000CE010E94EA0B882341F08C819D81892B97
:1018300019F4E881F981108281E0DF91CF91089558
:10184000EF92FF920F931F93CF93DF93EC017B01F5
:101850008A01BA010E94040C811104C0CE010E94C9
:10186000D80B07C01D830C83B701888199810E9422
:101870007E11CE01DF91CF911F910F91FF90EF90DC
:101880000895FC0111821082138212821582148243
:1018900016826115710551F0FB0101900020E9F7F6
:1018A0003197AF01461B570B0C94200C0895FC0197
:1018B000248135816217730748F4808191810097F4
:1018C00029F0FC01E60FF71F8081089580E008955C
:1018D000CF92DF92EF92FF920F931F93CF93DF93FC
:1018E0006C01EB017B01E40EF51E00E010E0CE156B
:1018F000DF0561F06991D601ED91FC910190F081D5
:10190000E02DC6010995080F191FF1CFC801DF911D
:10191000CF911F910F91FF90EF90DF90CF9008959E
:10192000AF92BF92CF92DF92EF92FF920F931F93ED
:10193000CF93DF936C017B01C0E0D0E000E010E0CA
:10194000D70114968D919C911597C817D90788F4E3
:10195000D601ED91FC91A080B180BE01C7010E942B
:10196000570C682FC601F5010995080F191F21961C
:10197000E7CFC801DF91CF911F910F91FF90EF90BA
:10198000DF90CF90BF90AF9008950E94980B0E9477
:101990006302C7EEDDE00E9420032097E1F30E947E
:1019A000E70DF9CF4F925F926F927F92AF92BF9205
:1019B000CF92DF92EF92FF920F931F93CF93DF931B
:1019C000CDB7DEB729013A019B01AC0124193509D5
:1019D0004609570989899A89AB89BC89BC01CD011F
:1019E0006A197B098C099D090E940411A8019701BD
:1019F00024193509460957090E943611CA01B9014F
:101A00006A0D7B1D8C1D9D1DDF91CF911F910F9144
:101A1000FF90EF90DF90CF90BF90AF907F906F904E
:101A20005F904F900895FC0124853585F901E05CB5
:101A3000FF4F80819181329620813181821B930BEF
:101A40008F7399270895DC011C96ED91FC911D97E9
:101A5000DF01A05CBF4F2D913C91119712968D91A3
:101A60009C9111972817390739F08D919C91E80FB7
:101A7000F91F808190E008958FEF9FEF0895FC019A
:101A8000A485B585FD01E05CFF4F20813181329650
:101A9000808191812817390779F080819181A80F81
:101AA000B91F8C91208131812F5F3F4F2F733327D6
:101AB0003183208390E008958FEF9FEF0895FC011C
:101AC00081A1882329F0A489B5898C9186FFFBCF59
:101AD00011A208950F931F93CF93DF93FC01A68566
:101AE000B7858D01005C1F4FE801888199810196BF
:101AF0008F739927AD014E5B5F4FEA0128813981D1
:101B000082179307D1F3E80128813981A20FB31F0F
:101B10006C93A685B785A05CBF4F11969C938E935E
:101B2000A689B7892C9181E090E0078C02C0880FCC
:101B3000991F0A94E2F7822B8C9381E081A3048899
:101B4000F589E02D80818064808381E090E0DF91E1
:101B5000CF911F910F91089508951F920F920FB684
:101B60000F9211242F934F935F938F939F93EF9333
:101B7000FF938091C00082FD1CC02091C60080911F
:101B800082039091830301968F7399274091840378
:101B9000509185038417950771F0E0918203F091CD
:101BA0008303EE5BFC4F2083909383038093820337
:101BB00002C08091C600FF91EF919F918F915F913C
:101BC0004F912F910F900FBE0F901F9018958CED95
:101BD00092E00E94130D892B11F00C94AC0D089526
:101BE0001F920F920FB60F9211242F933F938F9352
:101BF0009F93EF93FF9320913E0330913F03809199
:101C00004003909141032817390731F48091C100B6
:101C10008F7D8093C10014C0E0914003F091410397
:101C2000E250FD4F20818091400390914103019645
:101C30008F73992790934103809340032093C600AC
:101C4000FF91EF919F918F913F912F910F900FBE38
:101C50000F901F901895CF92DF92EF92FF920F9303
:101C60001F93CF93DF93EC016A017B014115514E25
:101C70006105710509F1EC89FD8981E090E008A01A
:101C800002C0880F991F0A94E2F7808360E079E030
:101C90008DE390E0A70196010E94141189019A0139
:101CA0000150110921093109369527951795079596
:101CB000980101151041A8F0EC89FD89108260E8B7
:101CC00074E88EE190E0A70196010E941411DA01F8
:101CD000C9010197A109B109B695A795979587956F
:101CE0009C01E889F9893083EA89FB89208319A25C
:101CF000EE89FF89408181E090E09C010C8C02C05C
:101D0000220F331F0A94E2F7242B2083EE89FF89E8
:101D100040819C010D8C02C0220F331F0A94E2F710
:101D2000242B2083EE89FF8940819C010E8C02C008
:101D3000220F331F0A94E2F7242B2083EE89FF89B8
:101D400020810F8C02C0880F991F0A94E2F78095BA
:101D500082238083DF91CF911F910F91FF90EF90AD
:101D6000DF90CF900895ECEDF2E01382128288EEBE
:101D700093E0A0E0B0E084839583A683B78385E2F7
:101D800091E09183808382E493E0958784878EEF4E
:101D900092E09787868785EC90E0918B808B84EC2E
:101DA00090E0938B828B80EC90E0958B848B81EC20
:101DB00090E0978B868B82EC90E0918F808F86EC01
:101DC00090E0938F828F84E0848F83E0858F87E01B
:101DD000868F85E0878F81E080A308956F927F9240
:101DE0008F929F92AF92BF92CF92DF92EF92FF922B
:101DF0000F931F93CF93DF93EC01009789F4CB01EE
:101E0000DF91CF911F910F91FF90EF90DF90CF90D6
:101E1000BF90AF909F908F907F906F900C94D70F52
:101E2000FC01E60FF71F9C0122503109E217F3076E
:101E300008F4ACC0D9010D911C9111970617170732
:101E4000B0F00530110508F49FC0C801049786174B
:101E5000970708F499C002501109061B170B01934C
:101E600011936D937C93CF010E946C108DC05B0128
:101E7000A01AB10A4C01800E911EA0918803B09166
:101E8000890340E050E0E12CF12C109709F44AC09E
:101E9000A815B905D1F56D907C901197630182E08A
:101EA000C80ED11CCA14DB0480F1A3014A195B09D6
:101EB0006A0182E0C80ED11C1296BC90129713964C
:101EC000AC91B5E0CB16D10440F0B282A38351832C
:101ED0004083D9016D937C930AC00E5F1F4FC301ED
:101EE000800F911FF90191838083EB2DFA2FE1146C
:101EF000F10431F0D7011396FC93EE93129744C08E
:101F0000F0938903E09388033FC08D919C911197D2
:101F10004817590708F4AC017D0112960D90BC9149
:101F2000A02DB3CF809186039091870388159905E2
:101F3000E1F446175707C8F480910101909102011E
:101F4000009741F48DB79EB740910501509106016D
:101F5000841B950BE817F907C8F4F0938703E09307
:101F60008603F901718360830FC0CB010E94D70FF4
:101F70007C01009759F0A801BE010E947511CE01A5
:101F80000E946C10C70104C0CE0102C080E090E046
:101F9000DF91CF911F910F91FF90EF90DF90CF9045
:101FA000BF90AF909F908F907F906F900895CF9348
:101FB000DF938230910510F482E090E0E091880395
:101FC000F091890320E030E0C0E0D0E0309711F1DB
:101FD0004081518148175907C0F04817590761F4EB
:101FE00082819381209719F09B838A832BC09093E1
:101FF00089038093880326C02115310519F0421703
:10200000530718F49A01BE01DF01EF010280F3814A
:10201000E02DDCCF2115310509F1281B390B2430C7
:10202000310590F412968D919C911397611571056D
:1020300021F0FB019383828304C0909389038093F2
:102040008803FD01329644C0FD01E20FF31F819326
:102050009193225031092D933C933AC020918603ED
:1020600030918703232B41F4209103013091040127
:102070003093870320938603209101013091020160
:102080002115310541F42DB73EB74091050150911E
:102090000601241B350BE0918603F0918703E217BC
:1020A000F307A0F42E1B3F0B2817390778F0AC017B
:1020B0004E5F5F4F2417350748F04E0F5F1F509358
:1020C0008703409386038193919302C0E0E0F0E0A0
:1020D000CF01DF91CF9108950F931F93CF93DF939B
:1020E000009709F48CC0FC01329713821282009190
:1020F0008803109189030115110581F42081318134
:10210000820F931F20918603309187032817390788
:1021100079F5F0938703E093860371C0D80140E01E
:1021200050E0AE17BF0750F412962D913C911397D3
:10213000AD012115310509F1D901F3CF9D01DA0176
:102140003383228360817181860F971F82179307E3
:1021500069F4EC0128813981260F371F2E5F3F4F2C
:10216000318320838A819B8193838283452B29F449
:10217000F0938903E093880342C01396FC93EE9397
:102180001297ED01499159919E01240F351FE217D5
:10219000F30771F480819181840F951F0296119647
:1021A0009C938E938281938113969C938E93129726
:1021B000E0E0F0E0D80112968D919C911397009782
:1021C00019F0F8018C01F6CF8D919C9198012E5F4A
:1021D0003F4F820F931F209186033091870328176A
:1021E000390769F4309729F4109289031092880313
:1021F00002C0138212821093870300938603DF913B
:10220000CF911F910F910895DB018F939F930E94AF
:102210005511BF91AF91A29F800D911DA39F900D6D
:10222000B29F900D11240895A1E21A2EAA1BBB1B88
:10223000FD010DC0AA1FBB1FEE1FFF1FA217B30792
:10224000E407F50720F0A21BB30BE40BF50B661FA8
:10225000771F881F991F1A9469F76095709580956C
:1022600090959B01AC01BD01CF010895052E97FB10
:102270001EF400940E944D1157FD07D00E941411C6
:1022800007FC03D04EF40C944D11509540953095B9
:1022900021953F4F4F4F5F4F0895909580957095D2
:1022A00061957F4F8F4F9F4F08950E946611A59FA4
:1022B000900DB49F900DA49F800D911D1124089541
:1022C000EE0FFF1F0590F491E02D0994A29FB0013D
:1022D000B39FC001A39F700D811D1124911DB29F5A
:1022E000700D811D1124911D0895FB01DC0102C0B8
:1022F00001900D9241505040D8F70895FB01DC0148
:0E23000001900D920020E1F70895F894FFCFB0
:10230E000100008A03800074657374206D61726B26
:10231E00000000000095076507390741075507645F
:10232E0007000000006A0D680C130D3F0D230D5FB2
:02233E000D0090
:00000001FF
