:100000000C9474000C949C000C949C000C949C0028
:100010000C949C000C949C000C949C000C949C00F0
:100020000C949C000C949C000C949C000C949C00E0
:100030000C949C000C949C000C949C000C949C00D0
:100040000C94510A0C949C000C94B10B0C94F40B7E
:100050000C949C000C949C000C949C000C949C00B0
:100060000C9446080C949C0007040222050600012B
:1000700003103021131211313A3735342829232443
:10008000161B11100E0D0C020000000700020100EB
:100090000003040600000000000000000102040844
:1000A00010204080010204081020010204081020E2
:1000B000040404040404040402020202020203030E
:1000C00003030303000000002300260029000000B2
:1000D0000000250028002B0000000000240027005D
:1000E0002A00FF016407B00C11241FBECFEFD8E037
:1000F000DEBFCDBF11E0A0E0B1E0E0ECF1E202C074
:1001000005900D92A633B107D9F723E0A6E3B1E03D
:1001100001C01D92AC38B207E1F710E0C8EED0E0A4
:1001200004C02297FE010E94BB10C23ED107C9F74E
:100130000E944D0D0C94DE100C940000DC01ED913A
:10014000FC910190F081E02D099420E831E0F90163
:10015000482F50E09E2F921B981730F4DF01A40F18
:10016000B51F9C919193F6CF90917F01981B90932E
:100170007F010895CF93DF93EC0160E070E08EED96
:1001800092E00E949E00E091DE02F091DF02019079
:10019000F081E02D6C818EED92E00995BE018EED2F
:1001A00092E0DF91CF910C94820D1F93CF93DF9358
:1001B000182FC0E080E0D82FDD0F6C2F610F80E991
:1001C00091E00E948B058D2BCF5FC830A1F7DF91A6
:1001D000CF911F910895CF9361E070E08EED92E092
:1001E0000E949E00C0E08C2F0E94D500682F7727C8
:1001F00067FD70958EED92E00E949E00C85FC0344E
:1002000091F7CF9108950F931F93CF93DF93182FFA
:10021000062FC0E0D0E06C2F600F80E991E010FF66
:1002200003C00E949F0502C00E94B2051695219648
:10023000C830D10581F7DF91CF911F910F910895BB
:100240000F931F93CF93DF9380917F018930B8F094
:1002500001E811E0C0E0D0E0BE01F80181918F011A
:100260000E9403012896C034D105B1F780E991E0DE
:100270000E947A0689E00E94A50081E001C080E02A
:10028000DF91CF911F910F9108956F927F928F927E
:10029000AF92CF92EF920F931F93CF93DF93CDB78F
:1002A000DEB727970FB6F894DEBF0FBECDBF40E88C
:1002B00055E260E070E08EED92E00E942F0C6BE062
:1002C00071E0CE0101960E94250ECE0101960E949A
:1002D000BA00CE0101960E94B70D60E08DE00E9449
:1002E000B90960E08CE00E94B90960E088E00E94F2
:1002F000B90960E080E10E94B90961E080E10E94F3
:10030000F20987E7882E96E7A92E25E7C22E34E763
:10031000E32E03E722E741E760E780E991E00E94EE
:10032000060561E080E991E00E94C50500E010E06B
:10033000802F869586959801280F311D20FD05C0D8
:10034000602F80E991E00E949F050F5F1F4F0034EE
:10035000110571F780E991E00E947A0664E670E089
:1003600080E090E00E94BE0A00E010E002FB6624FC
:1003700060F8712C600E711E602F80E991E060FEC4
:1003800003C00E949F0502C00E94B2050F5F1F4F6D
:100390000034110559F780E991E00E947A0664E67D
:1003A00070E080E090E00E94BE0A10E0612F80E9DA
:1003B00091E00E94B2051F5F1034C1F780E991E01F
:1003C0000E947A0627960FB6F894DEBF0FBECDBF07
:1003D000DF91CF911F910F91EF90CF90AF908F90C1
:1003E0007F906F90089580917F01882331F08091F4
:1003F0008001813011F40C94200180E008958F92E7
:100400009F92AF92BF92CF92DF92EF92FF920F93A3
:100410001F9388EF91E00E94CB038BED91E00E9447
:10042000CB038EEB91E00E94CB0381EA91E00E9426
:10043000CB03812C912CA12CB12CC12CD12CE12CE3
:10044000F12C01EA11E02EEB31E04BED51E068EFC9
:1004500071E080E991E00E94CF041F910F91FF901D
:10046000EF90DF90CF90BF90AF909F908F900895C6
:10047000CF93C82F62E070E08EED92E00E949E0064
:100480006C2F8EED92E0CF910C94730BCF93C82F0D
:1004900063E070E08EED92E00E949E006C2F8EED86
:1004A00092E0CF910C94730BCF93DF93D82FC62F8C
:1004B00064E070E08EED92E00E949E006D2F8EED64
:1004C00092E00E94730B6C2F8EED92E0DF91CF9142
:1004D0000C94730B8F929F92AF92BF92CF92DF9248
:1004E000EF92FF920F931F93CF93DF936EE170E033
:1004F00080E090E00E94BE0A80917F01803140F44C
:100500008EED92E00E941F0B181619060CF418C10C
:100510000E94F3018111FCCF80E991E00E9429063D
:10052000882311F1C0E06C2F80E991E00E947505ED
:10053000882389F06C2F80E991E00E948B056C2F55
:10054000882329F080E991E00E94B20504C080E987
:1005500091E00E949F05CF5FC03429F780E991E0C8
:100560000E947A060E94EB008DE00E94280A2091EA
:100570007E01892B21F1211129C081E00E943802DE
:10058000C0E06C2F80E991E00E948B056C2F8823DE
:1005900029F080E991E00E94B20504C080E991E071
:1005A0000E949F05CF5FC03461F780E991E00E940F
:1005B0007A060E94EB0081E080937E0107C022232F
:1005C00029F010927E0181E00E9446028CE00E9498
:1005D000280A20917D01892B89F1211136C082E002
:1005E0000E943802CCE3D1E01FE3612F80E991E063
:1005F0000E948B0591E0811101C090E09993115008
:10060000A0F7CCE3D1E010E08991612F882329F095
:1006100080E991E00E949F0504C080E991E00E947A
:10062000B2051F5F103481F780E991E00E947A06DD
:100630000E94EB0081E080937D0107C0222329F016
:1006400010927D0182E00E94460288E00E94280A02
:1006500020917C01892B49F021110EC083E00E947A
:10066000380281E080937C0107C0222329F0109298
:100670007C0183E00E9446028EE00E947309BC0167
:10068000882777FD8095982F1F921F921F9299249B
:100690009A949F92A12CB12C6501EE24EA9413E068
:1006A000F12E00E010E020E030E0A9010E94060DEC
:1006B000862EC62FD72F8FE00E947309BC01882792
:1006C00077FD8095982F1F921F921F929F9220E096
:1006D00030E0A9010E94060D80E10E947309BC016F
:1006E000882777FD8095982F1F921F921F929F92C7
:1006F00020E030E0A9010E94060D8DB79EB70C9650
:100700000FB6F8949EBF0FBE8DBF809136019091B9
:100710003701C817D90721F1D0933701C0933601AB
:10072000682D80E0DF91CF911F910F91FF90EF90A6
:10073000DF90CF90BF90AF909F908F900C94540219
:10074000C0917F01D0E08EED92E00E94480BC0582E
:10075000DE4F888380917F018F5F80937F01CCCEB5
:10076000DF91CF911F910F91FF90EF90DF90CF908D
:10077000BF90AF909F908F900895DC01ED91FC9118
:100780000190F081E02D0994DC01ED91FC91019044
:10079000F081E02D099408956031C8F4E62FF0E06F
:1007A000E859FF4FE491AE2FB0E024E0B595A7954E
:1007B0002A95E1F7A80FB91F50968C9190E0EF7041
:1007C00002C095958795EA95E2F78170089580E0DB
:1007D00008956031C8F4E62FF0E0E859FF4FE49146
:1007E000AE2FB0E034E0B595A7953A95E1F7A80FA4
:1007F000B91F56968C9190E0EF7002C09595879541
:10080000EA95E2F78170089580E008956031F8F488
:10081000E62FF0E0E858FF4FE4914E2F4F7021E0B3
:1008200030E002C0220F331F4A95E2F7F0E044E0C7
:10083000F595E7954A95E1F7EE0FFF1FE80FF91FD1
:10084000808191812823392381E0232B09F480E0E2
:1008500008956031F8F4E62FF0E0E858FF4FE49196
:10086000AE2FB0E064E0B595A7956A95E1F7AA0FC1
:10087000BB1FA80FB91FEF7021E030E002C0220FAC
:10088000331FEA95E2F78D919C911197822B932B60
:100890008D939C930895603108F5E62FF0E0E858B9
:1008A000FF4FE491AE2FB0E0F4E0B595A795FA952F
:1008B000E1F7AA0FBB1FA80FB91FEF7081E090E00E
:1008C00002C0880F991FEA95E2F7809590952D91C7
:1008D0003C911197282339232D933C930895CF936E
:1008E000C62FFC01648D85E192E00E9444076C2FC5
:1008F000C03108F06FE0606E70E085E192E00E9428
:10090000C40385E192E0CF910C946107CF93C62F89
:10091000FC01648D85E192E00E944407C43008F038
:10092000C0E06C2F70E0660F771F616885E192E090
:100930000E94C40385E192E0CF910C946107CF93AC
:10094000DF93EC016C8F85E192E00E942A076C8DA9
:1009500085E192E00E94440761E270E085E192E067
:100960000E94C40385E192E00E94610760E0CE012D
:100970000E9486046FE0CE010E946F046C8D85E1B9
:1009800092E00E94440761EA70E085E192E00E94F3
:10099000C40385E192E0DF91CF910C9461078F92BF
:1009A0009F92AF92BF92CF92DF92EF92FF920F93FE
:1009B0001F93CF93DF93CDB7DEB7FC0171836083C4
:1009C000538342833583248317830683F186E0862D
:1009D000D386C286B586A48697868686108ADC0171
:1009E00020E08D919D91892B21F02F5F208B283065
:1009F000C1F7DF91CF911F910F91FF90EF90DF90A2
:100A0000CF90BF90AF909F908F9008956F927F92FC
:100A10008F92AF92CF92EF920F931F93CF93DF936A
:100A2000CDB7DEB728970FB6F894DEBF0FBECDBFA7
:100A30003C0169834A832B830C83ED82CE82AF8293
:100A4000888610E0F30180891817B0F4212F30E078
:100A5000F901EE0FFF1FE60DF71D808191810097D0
:100A600049F0E1E0F0E0EC0FFD1FE20FF31F6081C1
:100A70000E949F041F5FE6CF28960FB6F894DEBF52
:100A80000FBECDBFDF91CF911F910F91EF90CF900F
:100A9000AF908F907F906F90089567FD10C0262FC4
:100AA00022952F70FC013089231748F46F70E20FF4
:100AB000F11DE20FF11D808191810C94CC0380E047
:100AC000089567FD10C0262F22952F70FC013089F4
:100AD000231748F46F70E20FF11DE20FF11D8081C2
:100AE00091810C94E90380E008950F931F93CF93B5
:100AF000DF93EC01162F0E944D05082F612FCE01C8
:100B00000E94610591E09827892F8023DF91CF9182
:100B10001F910F91089567FD10C0262F22952F7009
:100B2000FC013089231748F46F70E20FF11DE20FCA
:100B3000F11D808191810C94060480E0089567FD89
:100B400010C0262F22952F70FC013089231748F4FE
:100B50006F70E20FF11DE20FF11D808191810C9405
:100B60002904089567FD10C0262F22952F70FC01DF
:100B70003089231748F46F70E20FF11DE20FF11D69
:100B8000808191810C944B0408950F931F93CF9310
:100B9000DF93EC01062F10E08889181770F4FE012E
:100BA000E10FF11DE10FF11D80819181009719F096
:100BB000602F0E946F041F5FEFCFDF91CF911F91D5
:100BC0000F9108950F931F93CF93DF93EC01DC01F6
:100BD0005696FC01709686E001900D928A95E1F799
:100BE0006C8D85E192E00E94440760E470E085E14D
:100BF00092E00E94C40385E192E00E94610746E012
:100C00006C8D85E192E00E94410700E010E085E1F3
:100C100092E00E949B06FE01E00FF11F808B0F5FA8
:100C20001F4F0630110599F780E090E0FE01E80FB4
:100C3000F91F36892089321306C001968630910546
:100C4000A9F780E001C081E0DF91CF911F910F9162
:100C500008951F93CF93DF93EC0110E080E0988913
:100C60001917C0F4FE01E10FF11DE10FF11D208104
:100C700031812115310561F0811109C0C9010E943E
:100C8000E20591E0811101C090E0892F01C081E06F
:100C90001F5FE5CFDF91CF911F910895FF920F93D2
:100CA0001F93CF93DF93EC016C8D85E192E00E945E
:100CB000440760E085E192E00E94EB0658E0F52EE3
:100CC0008E0169917991772785E192E00E94BD03B9
:100CD000F801618170E085E192E00E94BD03FA9421
:100CE00079F785E192E0DF91CF911F910F91FF900D
:100CF0000C9461071F93CF93DF93EC0110E0888978
:100D0000181768F4FE01E10FF11DE10FF11D80815C
:100D10009181009711F00E944E061F5FF0CFDF9186
:100D2000CF911F9108958091450290E02091460255
:100D3000821B91090895209146028091450228174F
:100D400050F4E22FF0E0E95BFD4F808190E02F5FEF
:100D50002093460208958FEF9FEF0895E091460299
:100D600080914502E81730F4F0E0E95BFD4F8081A7
:100D700090E008958FEF9FEF08950895CF92DF924E
:100D8000EF92FF920F931F93CF93DF937C01CB01E0
:100D90008A0120912102222389F0EB016B01C40E0C
:100DA000D51ECC15DD0569F06991D701ED91FC9157
:100DB0000190F081E02DC7010995F3CF642F0E94C7
:100DC0001D08C801DF91CF911F910F91FF90EF9007
:100DD000DF90CF900895CF93DF931F92CDB7DEB70A
:100DE0006983209121022223D1F020912202203216
:100DF00040F021E030E0FC013383228380E090E08A
:100E000015C080912302E82FF0E0EC5DFD4F998141
:100E100090838F5F809323028093220205C061E05C
:100E2000CE0101960E941D0881E090E00F90DF91B5
:100E3000CF910895FC011382128248EE53E060E0E6
:100E400070E0448355836683778389E191E09183E1
:100E50008083089510924602109245021092230258
:100E6000109222020C946807862F413208F040E26B
:100E700067E472E00E948607109246028093450262
:100E8000089521E00C94340781E08093210260935F
:100E90004402109223021092220208950F93062F0B
:100EA00021E04091220264E272E0809144020E94BB
:100EB000CA071092230210922202109221020F916F
:100EC000089561E00C944E0785E192E00C941A07B6
:100ED0001092D40281E08093D2021092D10261E09C
:100EE00082E10E94F20961E083E10E94F209E9EBEC
:100EF000F0E080818E7F808380818D7F808388E495
:100F00008093B80085E48093BC000895413208F0D6
:100F10003FC09091D4029111FCCF91E09093D40204
:100F20002093D2022FEF209367021092AC02240F7D
:100F30002093AB029093D3029091D302880F892B18
:100F40008093D3028091D102813041F41092D1027A
:100F50008091D3028093BB0085EC01C085EE809325
:100F6000BC008091D4028130E1F38091AC028417FF
:100F700010F44091AC022DEA32E0FB01D9018A2F36
:100F8000821B841718F48D918193F9CF842F0895D3
:100F900080E008950F93413208F046C09091D4024A
:100FA0009111FCCF92E09093D4020093D2029FEF74
:100FB000909367021092AC024093AB02FB016DEA82
:100FC00072E0DB019A2F961B941718F491919D9370
:100FD000F9CF1092D3029091D302880F892B80937E
:100FE000D3028091D102813041F41092D1028091DC
:100FF000D3028093BB0085EC01C085EE8093BC00DA
:10100000222321F08091D4028230E1F380916702A3
:101010008F3F61F080916702803251F080916702CA
:10102000803341F483E007C081E005C080E003C065
:1010300082E001C084E00F910895613298F420911C
:10104000D402243089F460938902FC018BE892E099
:10105000DC012A2F281B261718F421912D93F9CF94
:1010600080E0089581E0089582E0089585ED809301
:10107000BC008091BC0084FDFCCF1092D402089586
:1010800085EC8093BC001092D40208951F920F92B9
:101090000FB60F9211242F933F934F935F936F934B
:1010A0007F938F939F93AF93BF93EF93FF93809121
:1010B000B900887F803609F49CC068F5883209F44D
:1010C0005BC090F4803109F454C038F4882309F4EB
:1010D000F5C0883009F44DC0F5C0883109F44CC022
:1010E000803209F45DC0EEC0803409F468C048F471
:1010F000803309F455C0883309F0E4C08093670257
:10110000A8C0803509F44FC0883509F45DC0883423
:1011100009F0D8C0D5C0883909F4C6C0A8F488370A
:1011200009F467C038F4883609F463C0803709F4DD
:1011300060C0C8C0883809F4B7C0803909F45FC0FE
:10114000803809F0BFC05BC0803B09F485C038F42B
:10115000803A09F466C0883A09F47EC0B3C0803C86
:1011600009F4A6C0883C09F4A3C0883B09F489C0EF
:10117000A9C08091D30210C09091AC028091AB02C3
:10118000981770F5E091AC0281E08E0F8093AC026D
:10119000F0E0E355FD4F80818093BB0085EC85C076
:1011A000809367028DC0E091AC0281E08E0F809346
:1011B000AC028091BB00F0E0E355FD4F808390913D
:1011C000AC028091AB026DC0E091AC0281E08E0F69
:1011D0008093AC028091BB00F0E0E355FD4F80832B
:1011E0008091D20281116CC081E08093D10284EAA7
:1011F00060C083E08093D40210926802CFCF8091C8
:101200006802803208F050C0E091680281E08E0FE1
:10121000809368028091BB00F0E0E759FD4F808326
:10122000BDCF80916802803230F4E0916802F0E036
:10123000E759FD4F10820E9436086091680270E005
:10124000E091CD02F091CE0289E692E009951092EC
:1012500068020E94400836C084E08093D402109255
:101260008A0210928902E091CF02F091D002099592
:1012700080918902811105C081E0809389021092DA
:101280008B02E0918A0281E08E0F80938A02F0E067
:10129000E557FD4F80818093BB0090918A02809139
:1012A0008902981708F47ACF85E88093BC000AC0B9
:1012B00085EC8093BC001092D40204C010926702A7
:1012C0000E943608FF91EF91BF91AF919F918F914E
:1012D0007F916F915F914F913F912F910F900FBE32
:1012E0000F901F9018958E3008F08E5087702091C7
:1012F000040190E4299F90011124822B80937C00AB
:1013000080917A00806480937A0080917A0086FDD3
:10131000FCCF809178002091790090E0922B089585
:10132000833081F028F4813099F08230A1F0089563
:101330008630A9F08730B9F08430D1F480918000F4
:101340008F7D03C0809180008F7780938000089507
:1013500084B58F7702C084B58F7D84BD0895809158
:10136000B0008F7703C08091B0008F7D8093B00074
:101370000895CF93DF9390E0FC01E456FF4F249152
:10138000FC01E055FF4F8491882349F190E0880FDC
:10139000991FFC01E852FF4FA591B49182539F4FD2
:1013A000FC01C591D4919FB7611108C0F8948C914C
:1013B000209582238C93888182230AC0623051F465
:1013C000F8948C91322F309583238C938881822BD3
:1013D000888304C0F8948C91822B8C939FBFDF91FB
:1013E000CF9108950F931F93CF93DF931F92CDB7A3
:1013F000DEB7282F30E0F901E857FF4F8491F9015B
:10140000E456FF4F1491F901E055FF4F049100237A
:10141000C9F0882321F069830E9490096981E02F37
:10142000F0E0EE0FFF1FE253FF4FA591B4919FB77D
:10143000F8948C91611103C01095812301C0812B18
:101440008C939FBF0F90DF91CF911F910F910895C3
:10145000CF93DF93282F30E0F901E857FF4F8491B5
:10146000F901E456FF4FD491F901E055FF4FC491C3
:10147000CC2391F081110E949009EC2FF0E0EE0F47
:10148000FF1FEC53FF4FA591B4912C912D2381E0C8
:1014900090E021F480E002C080E090E0DF91CF9105
:1014A00008951F920F920FB60F9211242F933F931E
:1014B0008F939F93AF93BF938091D6029091D70261
:1014C000A091D802B091D9023091D50223E0230F28
:1014D0002D3720F40196A11DB11D05C026E8230F6C
:1014E0000296A11DB11D2093D5028093D602909340
:1014F000D702A093D802B093D9028091DA029091DA
:10150000DB02A091DC02B091DD020196A11DB11DAC
:101510008093DA029093DB02A093DC02B093DD02A9
:10152000BF91AF919F918F913F912F910F900FBEDF
:101530000F901F9018953FB7F8948091DA02909120
:10154000DB02A091DC02B091DD0226B5A89B05C0AC
:101550002F3F19F00196A11DB11D3FBF6627782FBF
:10156000892F9A2F620F711D811D911D42E0660F18
:10157000771F881F991F4A95D1F70895CF92DF9260
:10158000EF92FF92CF93DF936B017C010E949B0A45
:10159000EB01C114D104E104F10479F00E949B0A2B
:1015A0006C1B7D0B683E7340A0F381E0C81AD10824
:1015B000E108F108C851DC4FECCFDF91CF91FF90EB
:1015C000EF90DF90CF900895789484B5826084BDC9
:1015D00084B5816084BD85B5826085BD85B5816037
:1015E00085BDEEE6F0E0808181608083E1E8F0E097
:1015F0001082808182608083808181608083E0E8C6
:10160000F0E0808181608083E1EBF0E080818460A4
:101610008083E0EBF0E0808181608083EAE7F0E0A6
:10162000808184608083808182608083808181600A
:1016300080838081806880831092C1000895FC01BE
:1016400024853585F901E05CFF4F808191813296D8
:1016500020813181821B930B8F7399270895FC01A0
:1016600084859585FC01E05CFF4F40815181329675
:10167000208131814217530741F00190F081E02D24
:10168000E80FF91F808190E008958FEF9FEF089594
:10169000FC0184859585FC01E05CFF4F4081518110
:1016A0003296208131814217530779F0A081B181B0
:1016B000A80FB91F8C91208131812F5F3F4F2F736D
:1016C00033273183208390E008958FEF9FEF0895B3
:1016D000FC0181A1882329F0A489B5898C9186FF1A
:1016E000FBCF11A20895CF93DF93FC0126853785A8
:1016F000D901A05CBF4F8D919C91119701968F737A
:101700009927E901CE5BDF4F4881598184179507FE
:10171000D9F30D90BC91A02DA20FB31F6C93A68599
:10172000B785A05CBF4F11969C938E93A689B7890D
:101730002C9181E090E0078C02C0880F991F0A94D9
:10174000E2F7282B2C9381E081A30488F589E02D12
:1017500080818064808381E090E0DF91CF91089563
:1017600008951F920F920FB60F9211242F933F935B
:101770004F938F939F93EF93FF938091C00082FDCF
:101780001CC04091C600809184039091850301960E
:101790008F739927209186033091870382179307CF
:1017A00071F0E0918403F0918503EC5BFC4F408382
:1017B000909385038093840302C08091C600FF91BB
:1017C000EF919F918F914F913F912F910F900FBE6D
:1017D0000F901F9018958EED92E00E941F0B892BA1
:1017E00011F00C94B00B08951F920F920FB60F9248
:1017F00011242F933F938F939F93EF93FF93209107
:101800004003309141038091420390914303281794
:10181000390731F48091C1008F7D8093C10014C0DD
:10182000E0914203F0914303E050FD4F208180910D
:1018300042039091430301968F739927909343033A
:10184000809342032093C600FF91EF919F918F9167
:101850003F912F910F900FBE0F901F901895CF9230
:10186000DF92EF92FF92CF93DF93EC016A017B014D
:10187000411581EE580761057105F9F0EC89FD8984
:1018800081E090E008A002C0880F991F0A94E2F757
:10189000808360E079E08DE390E0A70196010E94EB
:1018A0006D102150310941095109569547953795D9
:1018B0002795211580E1380798F0EC89FD89108281
:1018C00060E874E88EE190E0A70196010E946D1037
:1018D000215031094109510956954795379527956A
:1018E000E889F9893083EA89FB89208319A2EE8986
:1018F000FF89408181E090E09C010C8C02C0220FA6
:10190000331F0A94E2F7422B4083EE89FF8940811E
:101910009C010D8C02C0220F331F0A94E2F7422B68
:101920004083EE89FF8940819C010E8C02C0220F0A
:10193000331F0A94E2F7422B4083EE89FF8920810E
:101940000F8C02C0880F991F0A94E2F780958223BA
:101950008083DF91CF91FF90EF90DF90CF9008953B
:101960001092E1021092E00288EE93E0A0E0B0E075
:101970008093E2029093E302A093E402B093E50225
:1019800089E291E09093DF028093DE0284E493E0A9
:101990009093EB028093EA0280E093E09093ED0253
:1019A0008093EC0285EC90E09093EF028093EE023E
:1019B00084EC90E09093F1028093F00280EC90E050
:1019C0009093F3028093F20281EC90E09093F50201
:1019D0008093F40282EC90E09093F7028093F602F9
:1019E00086EC90E09093F9028093F80284E0809373
:1019F000FA0283E08093FB0287E08093FC0285E09B
:101A00008093FD0281E08093FE0208954F925F92E1
:101A10006F927F92AF92BF92CF92DF92EF92FF923E
:101A20000F931F93CF93DF93CDB7DEB729013A0110
:101A3000621B730B840B950B29893A894B895C894E
:101A40002A193B094C095D09298B3A8B4B8B5C8B1E
:101A50009B01AC0169897A898B899C890E945D1000
:101A6000E418F50806091709A80197010E948F10CC
:101A70002A0D3B1D4C1D5D1DCA01B901DF91CF919F
:101A80001F910F91FF90EF90DF90CF90BF90AF909C
:101A90007F906F905F904F9008950E94E40A0E949B
:101AA0004501CBEEDBE00E946A022097E1F30E9441
:101AB000EB0BF9CFCF92DF92EF92FF920F931F9330
:101AC000CF93DF936C017A01EB01E60EF71E00E085
:101AD00010E0CE15DF0561F06991D601ED91FC9122
:101AE0000190F081E02DC6010995080F191FF1CF73
:101AF000C801DF91CF911F910F91FF90EF90DF9080
:101B0000CF900895AF92BF92CF92DF92EF92FF9263
:101B10000F931F93CF93DF937C016B01C0E0D0E064
:101B200000E010E0D60114968D919C911597C8178E
:101B3000D90788F4D701ED91FC91A080B180BE0156
:101B4000C6010E943C0E682FC701F5010995080FD8
:101B5000191F2196E7CFC801DF91CF911F910F91F7
:101B6000FF90EF90DF90CF90BF90AF900895FC0171
:101B7000808191810C94CE0FCF93DF93EC0188810B
:101B80009981009711F00E94CE0F198218821D8250
:101B90001C821B821A82DF91CF9108950F931F93AD
:101BA000CF93DF93EC018B016F5F7F4F8881998129
:101BB0000E944D0E009731F0998388831B830A831E
:101BC00081E001C080E0DF91CF911F910F910895D6
:101BD000CF93DF93EC0188819981892B29F08A8149
:101BE0009B818617970760F4CE010E94CE0D882353
:101BF00041F08C819D81892B19F4E881F981108253
:101C000081E0DF91CF910895EF92FF920F931F93A0
:101C1000CF93DF93EC017B018A01BA010E94E80DAA
:101C2000811104C0CE010E94BC0D07C01D830C832E
:101C3000B701888199810E94D710CE01DF91CF91A1
:101C40001F910F91FF90EF900895FC011182108277
:101C5000138212821582148216826115710559F061
:101C6000FB0101900020E9F7AF0141505109461BEB
:101C7000570B0C94040E0895FC01248135816217E2
:101C8000730748F480819181009729F0FC01E60FE9
:101C9000F71F8081089580E008956F927F928F9260
:101CA0009F92AF92BF92CF92DF92EF92FF920F93EB
:101CB0001F93CF93DF93EC01CB01209781F4DF9149
:101CC000CF911F910F91FF90EF90DF90CF90BF9039
:101CD000AF909F908F907F906F900C94360FFE0185
:101CE000E60FF71F9E0122503109E217F30708F4AF
:101CF000ACC0D9010D911C91119706171707B8F0C8
:101D00000530110508F49FC0A80144505109461739
:101D1000570708F498C002501109061B170B0193CE
:101D200011936D937C93CF010E94CE0F8CC05B0109
:101D3000A01AB10A4E01800E911EA0918A03B091A3
:101D40008B03612C712C60E070E0109709F449C09E
:101D5000A815B905C9F5ED90FC901197670142E00F
:101D6000C40ED11CCA14DB0478F147018A189B0801
:101D7000640142E0C40ED11C1296BC9012971396D7
:101D8000AC91B5E0CB16D10440F0B282A38391822E
:101D90008082D9018D939C9309C00E5F1F4F0E0D59
:101DA0001F1DF90111830083EB2DFA2F61157105B9
:101DB00031F0DB011396FC93EE93129744C0F0933D
:101DC0008B03E0938A033FC06D917C911197661657
:101DD000770608F43B01BD0112960D90BC91A02D31
:101DE000B4CF609188037091890368157905E9F48F
:101DF00068167906D0F4409105015091060141150D
:101E0000510541F44DB75EB76091090170910A0127
:101E1000461B570BE417F507C0F4F0938903E093D2
:101E20008803F901918380830EC00E94360F7C01E4
:101E3000009759F0A801BE010E94CE10CE010E9469
:101E4000CE0FC70104C0CE0102C080E090E0DF9158
:101E5000CF911F910F91FF90EF90DF90CF90BF90A7
:101E6000AF909F908F907F906F900895CF93DF9366
:101E70008230910510F482E090E0E0918A03F091C5
:101E80008B0320E030E0A0E0B0E0309739F14081F2
:101E9000518148175907B8F04817590771F48281E2
:101EA0009381109729F013969C938E9312972CC0D0
:101EB00090938B0380938A0327C02115310531F05D
:101EC0004217530718F0A901DB0101C0EF019A0185
:101ED000BD01DF010280F381E02DD7CF211531054F
:101EE000F9F0281B390B2430310580F48A819B815D
:101EF0006115710521F0FB019383828304C09093E7
:101F00008B0380938A03FE01329644C0FE01E20FE8
:101F1000F31F8193919322503109398328833AC06A
:101F20002091880330918903232B41F420910701EC
:101F30003091080130938903209388032091050193
:101F4000309106012115310541F42DB73EB740917E
:101F5000090150910A01241B350BE0918803F0918F
:101F60008903E217F307A0F42E1B3F0B281739074C
:101F700078F0AC014E5F5F4F2417350748F04E0FE5
:101F80005F1F50938903409388038193919302C00C
:101F9000E0E0F0E0CF01DF91CF910895CF93DF93A0
:101FA000009709F487C0FC01329713821282C09116
:101FB0008A03D0918B03209781F420813181280FEF
:101FC000391F80918803909189038217930779F5CF
:101FD000F0938903E09388036DC0DE0120E030E0D8
:101FE000AE17BF0750F412964D915C9113979D0167
:101FF0004115510509F1DA01F3CFB383A283408182
:102000005181840F951F8A179B0771F48D919C91C4
:102010001197840F951F02969183808312968D915C
:102020009C911397938382832115310529F4F093B2
:102030008B03E0938A033EC0D9011396FC93EE9381
:1020400012974D915D91A40FB51FEA17FB0779F424
:1020500080819181840F951F0296D90111969C93DE
:102060008E938281938113969C938E931297E0E0D6
:10207000F0E08A819B81009719F0FE01EC01F9CF15
:10208000CE01029628813981820F931F2091880307
:10209000309189032817390769F4309729F4109291
:1020A0008B0310928A0302C013821282D093890399
:1020B000C0938803DF91CF910895DB018F939F93A5
:1020C0000E94AE10BF91AF91A29F800D911DA39F62
:1020D000900DB29F900D11240895A1E21A2EAA1B13
:1020E000BB1BFD010DC0AA1FBB1FEE1FFF1FA217C8
:1020F000B307E407F50720F0A21BB30BE40BF50BC5
:10210000661F771F881F991F1A9469F7609570954D
:10211000809590959B01AC01BD01CF010895052EDE
:1021200097FB1EF400940E94A61057FD07D00E9452
:102130006D1007FC03D04EF40C94A61050954095FA
:10214000309521953F4F4F4F5F4F08959095809563
:10215000709561957F4F8F4F9F4F08950E94BF10DC
:10216000A59F900DB49F900DA49F800D911D1124EB
:102170000895EE0FFF1F0590F491E02D0994A29FA2
:10218000B001B39FC001A39F700D811D1124911D4B
:10219000B29F700D811D1124911D0895FB01DC017A
:1021A00002C001900D9241505040D8F70895FB01B4
:1021B000DC0101900D920020E1F70895F894FFCF23
:1021C000010000000100008C03800074657374201E
:1021D0006D61726B0000000000EB06BE0693069B6B
:1021E00006AE06BD0600000000730B5A0D1F0B481B
:0621F0000B2F0B680B0031
:00000001FF
